{
  "_format": "hh-sol-artifact-1",
  "contractName": "Charity",
  "sourceName": "contracts/charity.sol",
  "abi": [
    {
      "inputs": [
        {
          "internalType": "string",
          "name": "product_name",
          "type": "string"
        },
        {
          "internalType": "uint256",
          "name": "price",
          "type": "uint256"
        },
        {
          "internalType": "uint256",
          "name": "storeId",
          "type": "uint256"
        },
        {
          "internalType": "uint256",
          "name": "count",
          "type": "uint256"
        }
      ],
      "name": "add_product",
      "outputs": [],
      "stateMutability": "nonpayable",
      "type": "function"
    },
    {
      "inputs": [
        {
          "internalType": "uint256",
          "name": "",
          "type": "uint256"
        },
        {
          "internalType": "address",
          "name": "",
          "type": "address"
        }
      ],
      "name": "aprovals",
      "outputs": [
        {
          "internalType": "bool",
          "name": "",
          "type": "bool"
        }
      ],
      "stateMutability": "view",
      "type": "function"
    },
    {
      "inputs": [
        {
          "internalType": "uint256",
          "name": "",
          "type": "uint256"
        }
      ],
      "name": "beneficiaries",
      "outputs": [
        {
          "internalType": "uint256",
          "name": "Id",
          "type": "uint256"
        },
        {
          "internalType": "address",
          "name": "account",
          "type": "address"
        }
      ],
      "stateMutability": "view",
      "type": "function"
    },
    {
      "inputs": [
        {
          "internalType": "uint256",
          "name": "requestId",
          "type": "uint256"
        }
      ],
      "name": "beneficiaryGetMoney",
      "outputs": [],
      "stateMutability": "payable",
      "type": "function"
    },
    {
      "inputs": [
        {
          "internalType": "uint256",
          "name": "beneficiaryId",
          "type": "uint256"
        },
        {
          "internalType": "uint256",
          "name": "storeId",
          "type": "uint256"
        },
        {
          "internalType": "uint256",
          "name": "productId",
          "type": "uint256"
        },
        {
          "internalType": "uint256",
          "name": "amount",
          "type": "uint256"
        }
      ],
      "name": "benificiaryBuyProduct",
      "outputs": [],
      "stateMutability": "payable",
      "type": "function"
    },
    {
      "inputs": [
        {
          "internalType": "string",
          "name": "description",
          "type": "string"
        },
        {
          "internalType": "uint256",
          "name": "benificiaryId",
          "type": "uint256"
        },
        {
          "internalType": "uint256",
          "name": "goalAmount",
          "type": "uint256"
        }
      ],
      "name": "benificiaryCreateProject",
      "outputs": [],
      "stateMutability": "nonpayable",
      "type": "function"
    },
    {
      "inputs": [],
      "name": "charity",
      "outputs": [
        {
          "internalType": "string",
          "name": "charityName",
          "type": "string"
        },
        {
          "internalType": "address",
          "name": "charityAddress",
          "type": "address"
        },
        {
          "internalType": "string",
          "name": "Desc",
          "type": "string"
        }
      ],
      "stateMutability": "view",
      "type": "function"
    },
    {
      "inputs": [
        {
          "internalType": "uint256",
          "name": "pId",
          "type": "uint256"
        }
      ],
      "name": "charityPayForProject",
      "outputs": [],
      "stateMutability": "nonpayable",
      "type": "function"
    },
    {
      "inputs": [],
      "name": "coStore",
      "outputs": [
        {
          "internalType": "uint256",
          "name": "storeId",
          "type": "uint256"
        },
        {
          "internalType": "string",
          "name": "storeName",
          "type": "string"
        },
        {
          "internalType": "address",
          "name": "storeAddress",
          "type": "address"
        }
      ],
      "stateMutability": "view",
      "type": "function"
    },
    {
      "inputs": [],
      "name": "creatBenificiary",
      "outputs": [],
      "stateMutability": "nonpayable",
      "type": "function"
    },
    {
      "inputs": [
        {
          "internalType": "string",
          "name": "name",
          "type": "string"
        }
      ],
      "name": "creatCooStore",
      "outputs": [],
      "stateMutability": "nonpayable",
      "type": "function"
    },
    {
      "inputs": [
        {
          "internalType": "string",
          "name": "name",
          "type": "string"
        },
        {
          "internalType": "uint256",
          "name": "amount",
          "type": "uint256"
        },
        {
          "internalType": "uint256",
          "name": "pId",
          "type": "uint256"
        }
      ],
      "name": "creatDonator",
      "outputs": [],
      "stateMutability": "nonpayable",
      "type": "function"
    },
    {
      "inputs": [
        {
          "internalType": "address",
          "name": "addr",
          "type": "address"
        }
      ],
      "name": "createCharity",
      "outputs": [],
      "stateMutability": "nonpayable",
      "type": "function"
    },
    {
      "inputs": [
        {
          "internalType": "string",
          "name": "description",
          "type": "string"
        },
        {
          "internalType": "uint256",
          "name": "fundAmount",
          "type": "uint256"
        },
        {
          "internalType": "uint256",
          "name": "benificiaryID",
          "type": "uint256"
        },
        {
          "internalType": "uint256",
          "name": "projectId",
          "type": "uint256"
        }
      ],
      "name": "createFundingBeneficiaryRequest",
      "outputs": [],
      "stateMutability": "nonpayable",
      "type": "function"
    },
    {
      "inputs": [
        {
          "internalType": "uint256",
          "name": "requestId",
          "type": "uint256"
        },
        {
          "internalType": "bool",
          "name": "vote",
          "type": "bool"
        }
      ],
      "name": "donarotVotesRequset",
      "outputs": [],
      "stateMutability": "nonpayable",
      "type": "function"
    },
    {
      "inputs": [
        {
          "internalType": "uint256",
          "name": "",
          "type": "uint256"
        }
      ],
      "name": "donators",
      "outputs": [
        {
          "internalType": "address",
          "name": "donatorAddress",
          "type": "address"
        },
        {
          "internalType": "string",
          "name": "donarname",
          "type": "string"
        },
        {
          "internalType": "uint256",
          "name": "amount",
          "type": "uint256"
        },
        {
          "internalType": "uint256",
          "name": "projectId",
          "type": "uint256"
        }
      ],
      "stateMutability": "view",
      "type": "function"
    },
    {
      "inputs": [
        {
          "internalType": "uint256",
          "name": "",
          "type": "uint256"
        },
        {
          "internalType": "uint256",
          "name": "",
          "type": "uint256"
        }
      ],
      "name": "donatorsOfProjects",
      "outputs": [
        {
          "internalType": "address",
          "name": "",
          "type": "address"
        }
      ],
      "stateMutability": "view",
      "type": "function"
    },
    {
      "inputs": [
        {
          "internalType": "uint256",
          "name": "donatorID",
          "type": "uint256"
        }
      ],
      "name": "make_donation",
      "outputs": [],
      "stateMutability": "payable",
      "type": "function"
    },
    {
      "inputs": [
        {
          "internalType": "uint256",
          "name": "",
          "type": "uint256"
        }
      ],
      "name": "payments",
      "outputs": [
        {
          "internalType": "uint256",
          "name": "tokenId",
          "type": "uint256"
        },
        {
          "internalType": "string",
          "name": "description",
          "type": "string"
        },
        {
          "internalType": "uint256",
          "name": "amount",
          "type": "uint256"
        },
        {
          "internalType": "address",
          "name": "receiver",
          "type": "address"
        },
        {
          "internalType": "uint256",
          "name": "productId",
          "type": "uint256"
        }
      ],
      "stateMutability": "view",
      "type": "function"
    },
    {
      "inputs": [
        {
          "internalType": "uint256",
          "name": "",
          "type": "uint256"
        }
      ],
      "name": "products",
      "outputs": [
        {
          "internalType": "uint256",
          "name": "productId",
          "type": "uint256"
        },
        {
          "internalType": "string",
          "name": "productName",
          "type": "string"
        },
        {
          "internalType": "uint256",
          "name": "price",
          "type": "uint256"
        },
        {
          "internalType": "uint256",
          "name": "count",
          "type": "uint256"
        },
        {
          "internalType": "uint256",
          "name": "storeId",
          "type": "uint256"
        }
      ],
      "stateMutability": "view",
      "type": "function"
    },
    {
      "inputs": [
        {
          "internalType": "uint256",
          "name": "",
          "type": "uint256"
        }
      ],
      "name": "projects",
      "outputs": [
        {
          "internalType": "uint256",
          "name": "Id",
          "type": "uint256"
        },
        {
          "internalType": "string",
          "name": "description",
          "type": "string"
        },
        {
          "internalType": "uint256",
          "name": "goalAmount",
          "type": "uint256"
        },
        {
          "internalType": "uint256",
          "name": "benificiaryId",
          "type": "uint256"
        },
        {
          "internalType": "bool",
          "name": "succsess",
          "type": "bool"
        }
      ],
      "stateMutability": "view",
      "type": "function"
    },
    {
      "inputs": [
        {
          "internalType": "uint256",
          "name": "",
          "type": "uint256"
        }
      ],
      "name": "requests",
      "outputs": [
        {
          "internalType": "uint256",
          "name": "Id",
          "type": "uint256"
        },
        {
          "internalType": "string",
          "name": "description",
          "type": "string"
        },
        {
          "internalType": "uint256",
          "name": "fundAmount",
          "type": "uint256"
        },
        {
          "internalType": "address",
          "name": "account",
          "type": "address"
        },
        {
          "internalType": "bool",
          "name": "succsess",
          "type": "bool"
        },
        {
          "internalType": "uint256",
          "name": "votesCount",
          "type": "uint256"
        },
        {
          "internalType": "uint256",
          "name": "totalvotes",
          "type": "uint256"
        },
        {
          "internalType": "uint256",
          "name": "projectId",
          "type": "uint256"
        }
      ],
      "stateMutability": "view",
      "type": "function"
    },
    {
      "inputs": [
        {
          "internalType": "uint256",
          "name": "",
          "type": "uint256"
        }
      ],
      "name": "stores",
      "outputs": [
        {
          "internalType": "uint256",
          "name": "storeId",
          "type": "uint256"
        },
        {
          "internalType": "string",
          "name": "storeName",
          "type": "string"
        },
        {
          "internalType": "address",
          "name": "storeAddress",
          "type": "address"
        }
      ],
      "stateMutability": "view",
      "type": "function"
    },
    {
      "inputs": [],
      "name": "testProducts",
      "outputs": [],
      "stateMutability": "pure",
      "type": "function"
    },
    {
      "inputs": [
        {
          "internalType": "uint256",
          "name": "tokenId",
          "type": "uint256"
        }
      ],
      "name": "withdraw",
      "outputs": [],
      "stateMutability": "nonpayable",
      "type": "function"
    }
  ],
  "bytecode": "0x608060405234801561001057600080fd5b50613496806100206000396000f3fe6080604052600436106101665760003560e01c80637acc0b20116100d1578063c5897b331161008a578063ef36311411610064578063ef3631141461054a578063efeb5e5814610573578063f0bdb5c6146105b1578063fb3fd47d146105cd57610166565b8063c5897b33146104d8578063da226395146104ef578063e8a59cd81461050b57610166565b80637acc0b201461037c57806381d12c58146103bd57806387d8178914610401578063934aa02314610442578063ac62f5661461046f578063b038c079146104af57610166565b80633a92bc10116101235780633a92bc101461027057806345be32ed14610299578063476d9e92146102c25780634ab3838c146102ff578063569830fb14610316578063793a082f1461033f57610166565b8063107046bd1461016b5780631e5cc028146101ac5780631f342707146101d557806326c13db0146101f15780632e1a7d4d1461021e5780633520d4ed14610247575b600080fd5b34801561017757600080fd5b50610192600480360381019061018d91906127bb565b6105f6565b6040516101a39594939291906128a2565b60405180910390f35b3480156101b857600080fd5b506101d360048036038101906101ce919061295a565b6106d1565b005b6101ef60048036038101906101ea9190612987565b6107e6565b005b3480156101fd57600080fd5b50610206610a8b565b604051610215939291906129fd565b60405180910390f35b34801561022a57600080fd5b50610245600480360381019061024091906127bb565b610b4b565b005b34801561025357600080fd5b5061026e60048036038101906102699190612a67565b610df4565b005b34801561027c57600080fd5b5061029760048036038101906102929190612bdc565b611081565b005b3480156102a557600080fd5b506102c060048036038101906102bb91906127bb565b6111e2565b005b3480156102ce57600080fd5b506102e960048036038101906102e49190612c4b565b6113a4565b6040516102f69190612c8b565b60405180910390f35b34801561030b57600080fd5b506103146113d3565b005b34801561032257600080fd5b5061033d60048036038101906103389190612ca6565b6115d4565b005b34801561034b57600080fd5b5061036660048036038101906103619190612cef565b6116cc565b6040516103739190612d2f565b60405180910390f35b34801561038857600080fd5b506103a3600480360381019061039e91906127bb565b61171a565b6040516103b4959493929190612d4a565b60405180910390f35b3480156103c957600080fd5b506103e460048036038101906103df91906127bb565b6117e8565b6040516103f8989796959493929190612da4565b60405180910390f35b34801561040d57600080fd5b50610428600480360381019061042391906127bb565b6118f5565b604051610439959493929190612e29565b60405180910390f35b34801561044e57600080fd5b506104576119e3565b60405161046693929190612e83565b60405180910390f35b34801561047b57600080fd5b50610496600480360381019061049191906127bb565b611b2b565b6040516104a69493929190612ec8565b60405180910390f35b3480156104bb57600080fd5b506104d660048036038101906104d19190612f14565b611c13565b005b3480156104e457600080fd5b506104ed611cc3565b005b610509600480360381019061050491906127bb565b611d79565b005b34801561051757600080fd5b50610532600480360381019061052d91906127bb565b611f64565b604051610541939291906129fd565b60405180910390f35b34801561055657600080fd5b50610571600480360381019061056c9190612bdc565b612046565b005b34801561057f57600080fd5b5061059a600480360381019061059591906127bb565b612127565b6040516105a8929190612f97565b60405180910390f35b6105cb60048036038101906105c691906127bb565b61217b565b005b3480156105d957600080fd5b506105f460048036038101906105ef9190612f14565b61230f565b005b6004818154811061060657600080fd5b906000526020600020906006020160009150905080600001549080600101805461062f90612fef565b80601f016020809104026020016040519081016040528092919081815260200182805461065b90612fef565b80156106a85780601f1061067d576101008083540402835291602001916106a8565b820191906000526020600020905b81548152906001019060200180831161068b57829003601f168201915b5050505050908060020154908060030154908060050160009054906101000a900460ff16905085565b60405180606001604052806040518060400160405280601281526020017f636861726974794f66334d75736b65747279000000000000000000000000000081525081526020018273ffffffffffffffffffffffffffffffffffffffff1681526020016040518060400160405280601381526020017f47656e75696e652043686172697479204170700000000000000000000000000081525081525060008082015181600001908161078291906131cc565b5060208201518160010160006101000a81548173ffffffffffffffffffffffffffffffffffffffff021916908373ffffffffffffffffffffffffffffffffffffffff16021790555060408201518160020190816107df91906131cc565b5090505050565b80600683815481106107fb576107fa61329e565b5b9060005260206000209060050201600301541015801561081b5750600081115b61082457600080fd5b600984815481106108385761083761329e565b5b906000526020600020906002020160010160009054906101000a900473ffffffffffffffffffffffffffffffffffffffff1673ffffffffffffffffffffffffffffffffffffffff163373ffffffffffffffffffffffffffffffffffffffff16146108a157600080fd5b600783815481106108b5576108b461329e565b5b906000526020600020906003020160020160009054906101000a900473ffffffffffffffffffffffffffffffffffffffff1673ffffffffffffffffffffffffffffffffffffffff166108fc600684815481106109145761091361329e565b5b9060005260206000209060050201600201548361093191906132fc565b9081150290604051600060405180830381858888f1935050505015801561095c573d6000803e3d6000fd5b5060006040518060a00160405280600580549050815260200161097e866124e6565b8152602001600685815481106109975761099661329e565b5b906000526020600020906005020160020154846109b491906132fc565b81526020013373ffffffffffffffffffffffffffffffffffffffff1681526020018481525090506005819080600181540180825580915050600190039060005260206000209060050201600090919091909150600082015181600001556020820151816001019081610a2691906131cc565b506040820151816002015560608201518160030160006101000a81548173ffffffffffffffffffffffffffffffffffffffff021916908373ffffffffffffffffffffffffffffffffffffffff1602179055506080820151816004015550505050505050565b600c806000015490806001018054610aa290612fef565b80601f0160208091040260200160405190810160405280929190818152602001828054610ace90612fef565b8015610b1b5780601f10610af057610100808354040283529160200191610b1b565b820191906000526020600020905b815481529060010190602001808311610afe57829003601f168201915b5050505050908060020160009054906101000a900473ffffffffffffffffffffffffffffffffffffffff16905083565b600060010160009054906101000a900473ffffffffffffffffffffffffffffffffffffffff1673ffffffffffffffffffffffffffffffffffffffff1660058281548110610b9b57610b9a61329e565b5b906000526020600020906005020160030160009054906101000a900473ffffffffffffffffffffffffffffffffffffffff1673ffffffffffffffffffffffffffffffffffffffff1603610bed57600080fd5b3373ffffffffffffffffffffffffffffffffffffffff1660058281548110610c1857610c1761329e565b5b906000526020600020906005020160030160009054906101000a900473ffffffffffffffffffffffffffffffffffffffff1673ffffffffffffffffffffffffffffffffffffffff1614610c6a57600080fd5b60003373ffffffffffffffffffffffffffffffffffffffff1660058381548110610c9757610c9661329e565b5b906000526020600020906005020160020154604051610cb59061336f565b60006040518083038185875af1925050503d8060008114610cf2576040519150601f19603f3d011682016040523d82523d6000602084013e610cf7565b606091505b5050905080610d0557600080fd5b600060010160009054906101000a900473ffffffffffffffffffffffffffffffffffffffff1660058381548110610d3f57610d3e61329e565b5b906000526020600020906005020160030160006101000a81548173ffffffffffffffffffffffffffffffffffffffff021916908373ffffffffffffffffffffffffffffffffffffffff1602179055506001600660058481548110610da657610da561329e565b5b90600052602060002090600502016004015481548110610dc957610dc861329e565b5b90600052602060002090600502016003016000828254610de99190613384565b925050819055505050565b600060088381548110610e0a57610e0961329e565b5b90600052602060002090600702016006015490506000600a6000838152602001908152602001600020805480602002602001604051908101604052809291908181526020018280548015610eb357602002820191906000526020600020905b8160009054906101000a900473ffffffffffffffffffffffffffffffffffffffff1673ffffffffffffffffffffffffffffffffffffffff1681526020019060010190808311610e69575b50505050509050600b600085815260200190815260200160002060003373ffffffffffffffffffffffffffffffffffffffff1673ffffffffffffffffffffffffffffffffffffffff16815260200190815260200160002060009054906101000a900460ff1615610f2257600080fd5b60005b8151811015610ff7573373ffffffffffffffffffffffffffffffffffffffff16828281518110610f5857610f5761329e565b5b602002602001015173ffffffffffffffffffffffffffffffffffffffff1603610fe45783600b600087815260200190815260200160002060003373ffffffffffffffffffffffffffffffffffffffff1673ffffffffffffffffffffffffffffffffffffffff16815260200190815260200160002060006101000a81548160ff0219169083151502179055505b8080610fef906133b8565b915050610f25565b506008848154811061100c5761100b61329e565b5b9060005260206000209060070201600501600081548092919061102e906133b8565b9190505550600115158315150361107b57600884815481106110535761105261329e565b5b90600052602060002090600702016004016000815480929190611075906133b8565b91905055505b50505050565b6000821161108e57600080fd5b600060405180608001604052803373ffffffffffffffffffffffffffffffffffffffff168152602001858152602001848152602001838152509050600381908060018154018082558091505060019003906000526020600020906004020160009091909190915060008201518160000160006101000a81548173ffffffffffffffffffffffffffffffffffffffff021916908373ffffffffffffffffffffffffffffffffffffffff160217905550602082015181600101908161115191906131cc565b5060408201518160020155606082015181600301555050600a6000838152602001908152602001600020339080600181540180825580915050600190039060005260206000200160009091909190916101000a81548173ffffffffffffffffffffffffffffffffffffffff021916908373ffffffffffffffffffffffffffffffffffffffff16021790555050505050565b6009600482815481106111f8576111f761329e565b5b9060005260206000209060060201600301548154811061121b5761121a61329e565b5b906000526020600020906002020160010160009054906101000a900473ffffffffffffffffffffffffffffffffffffffff1673ffffffffffffffffffffffffffffffffffffffff163373ffffffffffffffffffffffffffffffffffffffff161461128457600080fd5b600115156004828154811061129c5761129b61329e565b5b906000526020600020906006020160050160009054906101000a900460ff161515146112c757600080fd5b60003373ffffffffffffffffffffffffffffffffffffffff16600483815481106112f4576112f361329e565b5b9060005260206000209060060201600201546040516113129061336f565b60006040518083038185875af1925050503d806000811461134f576040519150601f19603f3d011682016040523d82523d6000602084013e611354565b606091505b505090508061136257600080fd5b6001600483815481106113785761137761329e565b5b906000526020600020906006020160050160006101000a81548160ff0219169083151502179055505050565b600b6020528160005260406000206020528060005260406000206000915091509054906101000a900460ff1681565b60606040518060a00160405280600081526020016040518060400160405280600881526020017f436f6d70757465720000000000000000000000000000000000000000000000008152508152602001600a8152602001600281526020016000815250816000815181106114495761144861329e565b5b60200260200101819052506040518060a00160405280600181526020016040518060400160405280600681526020017f4c6170746f700000000000000000000000000000000000000000000000000000815250815260200160148152602001600381526020016000815250816001815181106114c8576114c761329e565b5b60200260200101819052506040518060a00160405280600281526020016040518060400160405280600481526020017f466f6f6400000000000000000000000000000000000000000000000000000000815250815260200160058152602001600181526020016000815250816002815181106115475761154661329e565b5b60200260200101819052506040518060a00160405280600381526020016040518060400160405280600581526020017f426f6f6b73000000000000000000000000000000000000000000000000000000815250815260200160038152602001600981526020016000815250816003815181106115c6576115c561329e565b5b602002602001018190525050565b600060405180606001604052806007805490508152602001838152602001600060010160009054906101000a900473ffffffffffffffffffffffffffffffffffffffff1673ffffffffffffffffffffffffffffffffffffffff168152509050600781908060018154018082558091505060019003906000526020600020906003020160009091909190915060008201518160000155602082015181600101908161167e91906131cc565b5060408201518160020160006101000a81548173ffffffffffffffffffffffffffffffffffffffff021916908373ffffffffffffffffffffffffffffffffffffffff16021790555050505050565b600a60205281600052604060002081815481106116e857600080fd5b906000526020600020016000915091509054906101000a900473ffffffffffffffffffffffffffffffffffffffff1681565b6006818154811061172a57600080fd5b906000526020600020906005020160009150905080600001549080600101805461175390612fef565b80601f016020809104026020016040519081016040528092919081815260200182805461177f90612fef565b80156117cc5780601f106117a1576101008083540402835291602001916117cc565b820191906000526020600020905b8154815290600101906020018083116117af57829003601f168201915b5050505050908060020154908060030154908060040154905085565b600881815481106117f857600080fd5b906000526020600020906007020160009150905080600001549080600101805461182190612fef565b80601f016020809104026020016040519081016040528092919081815260200182805461184d90612fef565b801561189a5780601f1061186f5761010080835404028352916020019161189a565b820191906000526020600020905b81548152906001019060200180831161187d57829003601f168201915b5050505050908060020154908060030160009054906101000a900473ffffffffffffffffffffffffffffffffffffffff16908060030160149054906101000a900460ff16908060040154908060050154908060060154905088565b6005818154811061190557600080fd5b906000526020600020906005020160009150905080600001549080600101805461192e90612fef565b80601f016020809104026020016040519081016040528092919081815260200182805461195a90612fef565b80156119a75780601f1061197c576101008083540402835291602001916119a7565b820191906000526020600020905b81548152906001019060200180831161198a57829003601f168201915b5050505050908060020154908060030160009054906101000a900473ffffffffffffffffffffffffffffffffffffffff16908060040154905085565b60008060000180546119f490612fef565b80601f0160208091040260200160405190810160405280929190818152602001828054611a2090612fef565b8015611a6d5780601f10611a4257610100808354040283529160200191611a6d565b820191906000526020600020905b815481529060010190602001808311611a5057829003601f168201915b5050505050908060010160009054906101000a900473ffffffffffffffffffffffffffffffffffffffff1690806002018054611aa890612fef565b80601f0160208091040260200160405190810160405280929190818152602001828054611ad490612fef565b8015611b215780601f10611af657610100808354040283529160200191611b21565b820191906000526020600020905b815481529060010190602001808311611b0457829003601f168201915b5050505050905083565b60038181548110611b3b57600080fd5b90600052602060002090600402016000915090508060000160009054906101000a900473ffffffffffffffffffffffffffffffffffffffff1690806001018054611b8490612fef565b80601f0160208091040260200160405190810160405280929190818152602001828054611bb090612fef565b8015611bfd5780601f10611bd257610100808354040283529160200191611bfd565b820191906000526020600020905b815481529060010190602001808311611be057829003601f168201915b5050505050908060020154908060030154905084565b60008111611c2057600080fd5b60006040518060a0016040528060068054905081526020018681526020018581526020018381526020018481525090506006819080600181540180825580915050600190039060005260206000209060050201600090919091909150600082015181600001556020820151816001019081611c9b91906131cc565b5060408201518160020155606082015181600301556080820151816004015550505050505050565b6000604051806040016040528060098054905081526020013373ffffffffffffffffffffffffffffffffffffffff16815250905060098190806001815401808255809150506001900390600052602060002090600202016000909190919091506000820151816000015560208201518160010160006101000a81548173ffffffffffffffffffffffffffffffffffffffff021916908373ffffffffffffffffffffffffffffffffffffffff160217905550505050565b3373ffffffffffffffffffffffffffffffffffffffff1660038281548110611da457611da361329e565b5b906000526020600020906004020160000160009054906101000a900473ffffffffffffffffffffffffffffffffffffffff1673ffffffffffffffffffffffffffffffffffffffff1614611df657600080fd5b600060010160009054906101000a900473ffffffffffffffffffffffffffffffffffffffff1673ffffffffffffffffffffffffffffffffffffffff166108fc60038381548110611e4957611e4861329e565b5b9060005260206000209060040201600201549081150290604051600060405180830381858888f19350505050158015611e86573d6000803e3d6000fd5b50600460038281548110611e9d57611e9c61329e565b5b90600052602060002090600402016003015481548110611ec057611ebf61329e565b5b90600052602060002090600602016002015460038281548110611ee657611ee561329e565b5b90600052602060002090600402016002015410611f61576001600460038381548110611f1557611f1461329e565b5b90600052602060002090600402016003015481548110611f3857611f3761329e565b5b906000526020600020906006020160050160006101000a81548160ff0219169083151502179055505b50565b60078181548110611f7457600080fd5b9060005260206000209060030201600091509050806000015490806001018054611f9d90612fef565b80601f0160208091040260200160405190810160405280929190818152602001828054611fc990612fef565b80156120165780601f10611feb57610100808354040283529160200191612016565b820191906000526020600020905b815481529060010190602001808311611ff957829003601f168201915b5050505050908060020160009054906101000a900473ffffffffffffffffffffffffffffffffffffffff16905083565b606060006040518060c00160405280600480549050815260200186815260200184815260200185815260200183815260200160001515815250905060048190806001815401808255809150506001900390600052602060002090600602016000909190919091506000820151816000015560208201518160010190816120cc91906131cc565b50604082015181600201556060820151816003015560808201518160040190805190602001906120fd929190612707565b5060a08201518160050160006101000a81548160ff02191690831515021790555050505050505050565b6009818154811061213757600080fd5b90600052602060002090600202016000915090508060000154908060010160009054906101000a900473ffffffffffffffffffffffffffffffffffffffff16905082565b6002600882815481106121915761219061329e565b5b9060005260206000209060070201600501546121ad919061342f565b600882815481106121c1576121c061329e565b5b90600052602060002090600702016004015410156121de57600080fd5b600881815481106121f2576121f161329e565b5b906000526020600020906007020160030160009054906101000a900473ffffffffffffffffffffffffffffffffffffffff1673ffffffffffffffffffffffffffffffffffffffff163373ffffffffffffffffffffffffffffffffffffffff160361230c5760003373ffffffffffffffffffffffffffffffffffffffff163460405161227c9061336f565b60006040518083038185875af1925050503d80600081146122b9576040519150601f19603f3d011682016040523d82523d6000602084013e6122be565b606091505b50509050806122cc57600080fd5b6001600883815481106122e2576122e161329e565b5b906000526020600020906007020160030160146101000a81548160ff021916908315150217905550505b50565b60006040518061010001604052806008805490508152602001868152602001858152602001600985815481106123485761234761329e565b5b906000526020600020906002020160010160009054906101000a900473ffffffffffffffffffffffffffffffffffffffff1673ffffffffffffffffffffffffffffffffffffffff168152602001600015158152602001600081526020016000815260200183815250905060088190806001815401808255809150506001900390600052602060002090600702016000909190919091506000820151816000015560208201518160010190816123fd91906131cc565b506040820151816002015560608201518160030160006101000a81548173ffffffffffffffffffffffffffffffffffffffff021916908373ffffffffffffffffffffffffffffffffffffffff16021790555060808201518160030160146101000a81548160ff02191690831515021790555060a0820151816004015560c0820151816005015560e082015181600601555050600482815481106124a3576124a261329e565b5b9060005260206000209060060201600401816000015190806001815401808255809150506001900390600052602060002001600090919091909150555050505050565b6060600060016124f5846125b4565b01905060008167ffffffffffffffff81111561251457612513612ab1565b5b6040519080825280601f01601f1916602001820160405280156125465781602001600182028036833780820191505090505b509050600082602001820190505b6001156125a9578080600190039150507f3031323334353637383961626364656600000000000000000000000000000000600a86061a8153600a858161259d5761259c613400565b5b04945060008503612554575b819350505050919050565b600080600090507a184f03e93ff9f4daa797ed6e38ed64bf6a1f0100000000000000008310612612577a184f03e93ff9f4daa797ed6e38ed64bf6a1f010000000000000000838161260857612607613400565b5b0492506040810190505b6d04ee2d6d415b85acef8100000000831061264f576d04ee2d6d415b85acef8100000000838161264557612644613400565b5b0492506020810190505b662386f26fc10000831061267e57662386f26fc10000838161267457612673613400565b5b0492506010810190505b6305f5e10083106126a7576305f5e100838161269d5761269c613400565b5b0492506008810190505b61271083106126cc5761271083816126c2576126c1613400565b5b0492506004810190505b606483106126ef57606483816126e5576126e4613400565b5b0492506002810190505b600a83106126fe576001810190505b80915050919050565b828054828255906000526020600020908101928215612743579160200282015b82811115612742578251825591602001919060010190612727565b5b5090506127509190612754565b5090565b5b8082111561276d576000816000905550600101612755565b5090565b6000604051905090565b600080fd5b600080fd5b6000819050919050565b61279881612785565b81146127a357600080fd5b50565b6000813590506127b58161278f565b92915050565b6000602082840312156127d1576127d061277b565b5b60006127df848285016127a6565b91505092915050565b6127f181612785565b82525050565b600081519050919050565b600082825260208201905092915050565b60005b83811015612831578082015181840152602081019050612816565b60008484015250505050565b6000601f19601f8301169050919050565b6000612859826127f7565b6128638185612802565b9350612873818560208601612813565b61287c8161283d565b840191505092915050565b60008115159050919050565b61289c81612887565b82525050565b600060a0820190506128b760008301886127e8565b81810360208301526128c9818761284e565b90506128d860408301866127e8565b6128e560608301856127e8565b6128f26080830184612893565b9695505050505050565b600073ffffffffffffffffffffffffffffffffffffffff82169050919050565b6000612927826128fc565b9050919050565b6129378161291c565b811461294257600080fd5b50565b6000813590506129548161292e565b92915050565b6000602082840312156129705761296f61277b565b5b600061297e84828501612945565b91505092915050565b600080600080608085870312156129a1576129a061277b565b5b60006129af878288016127a6565b94505060206129c0878288016127a6565b93505060406129d1878288016127a6565b92505060606129e2878288016127a6565b91505092959194509250565b6129f78161291c565b82525050565b6000606082019050612a1260008301866127e8565b8181036020830152612a24818561284e565b9050612a3360408301846129ee565b949350505050565b612a4481612887565b8114612a4f57600080fd5b50565b600081359050612a6181612a3b565b92915050565b60008060408385031215612a7e57612a7d61277b565b5b6000612a8c858286016127a6565b9250506020612a9d85828601612a52565b9150509250929050565b600080fd5b600080fd5b7f4e487b7100000000000000000000000000000000000000000000000000000000600052604160045260246000fd5b612ae98261283d565b810181811067ffffffffffffffff82111715612b0857612b07612ab1565b5b80604052505050565b6000612b1b612771565b9050612b278282612ae0565b919050565b600067ffffffffffffffff821115612b4757612b46612ab1565b5b612b508261283d565b9050602081019050919050565b82818337600083830152505050565b6000612b7f612b7a84612b2c565b612b11565b905082815260208101848484011115612b9b57612b9a612aac565b5b612ba6848285612b5d565b509392505050565b600082601f830112612bc357612bc2612aa7565b5b8135612bd3848260208601612b6c565b91505092915050565b600080600060608486031215612bf557612bf461277b565b5b600084013567ffffffffffffffff811115612c1357612c12612780565b5b612c1f86828701612bae565b9350506020612c30868287016127a6565b9250506040612c41868287016127a6565b9150509250925092565b60008060408385031215612c6257612c6161277b565b5b6000612c70858286016127a6565b9250506020612c8185828601612945565b9150509250929050565b6000602082019050612ca06000830184612893565b92915050565b600060208284031215612cbc57612cbb61277b565b5b600082013567ffffffffffffffff811115612cda57612cd9612780565b5b612ce684828501612bae565b91505092915050565b60008060408385031215612d0657612d0561277b565b5b6000612d14858286016127a6565b9250506020612d25858286016127a6565b9150509250929050565b6000602082019050612d4460008301846129ee565b92915050565b600060a082019050612d5f60008301886127e8565b8181036020830152612d71818761284e565b9050612d8060408301866127e8565b612d8d60608301856127e8565b612d9a60808301846127e8565b9695505050505050565b600061010082019050612dba600083018b6127e8565b8181036020830152612dcc818a61284e565b9050612ddb60408301896127e8565b612de860608301886129ee565b612df56080830187612893565b612e0260a08301866127e8565b612e0f60c08301856127e8565b612e1c60e08301846127e8565b9998505050505050505050565b600060a082019050612e3e60008301886127e8565b8181036020830152612e50818761284e565b9050612e5f60408301866127e8565b612e6c60608301856129ee565b612e7960808301846127e8565b9695505050505050565b60006060820190508181036000830152612e9d818661284e565b9050612eac60208301856129ee565b8181036040830152612ebe818461284e565b9050949350505050565b6000608082019050612edd60008301876129ee565b8181036020830152612eef818661284e565b9050612efe60408301856127e8565b612f0b60608301846127e8565b95945050505050565b60008060008060808587031215612f2e57612f2d61277b565b5b600085013567ffffffffffffffff811115612f4c57612f4b612780565b5b612f5887828801612bae565b9450506020612f69878288016127a6565b9350506040612f7a878288016127a6565b9250506060612f8b878288016127a6565b91505092959194509250565b6000604082019050612fac60008301856127e8565b612fb960208301846129ee565b9392505050565b7f4e487b7100000000000000000000000000000000000000000000000000000000600052602260045260246000fd5b6000600282049050600182168061300757607f821691505b60208210810361301a57613019612fc0565b5b50919050565b60008190508160005260206000209050919050565b60006020601f8301049050919050565b600082821b905092915050565b6000600883026130827fffffffffffffffffffffffffffffffffffffffffffffffffffffffffffffffff82613045565b61308c8683613045565b95508019841693508086168417925050509392505050565b6000819050919050565b60006130c96130c46130bf84612785565b6130a4565b612785565b9050919050565b6000819050919050565b6130e3836130ae565b6130f76130ef826130d0565b848454613052565b825550505050565b600090565b61310c6130ff565b6131178184846130da565b505050565b5b8181101561313b57613130600082613104565b60018101905061311d565b5050565b601f8211156131805761315181613020565b61315a84613035565b81016020851015613169578190505b61317d61317585613035565b83018261311c565b50505b505050565b600082821c905092915050565b60006131a360001984600802613185565b1980831691505092915050565b60006131bc8383613192565b9150826002028217905092915050565b6131d5826127f7565b67ffffffffffffffff8111156131ee576131ed612ab1565b5b6131f88254612fef565b61320382828561313f565b600060209050601f8311600181146132365760008415613224578287015190505b61322e85826131b0565b865550613296565b601f19841661324486613020565b60005b8281101561326c57848901518255600182019150602085019450602081019050613247565b868310156132895784890151613285601f891682613192565b8355505b6001600288020188555050505b505050505050565b7f4e487b7100000000000000000000000000000000000000000000000000000000600052603260045260246000fd5b7f4e487b7100000000000000000000000000000000000000000000000000000000600052601160045260246000fd5b600061330782612785565b915061331283612785565b925082820261332081612785565b91508282048414831517613337576133366132cd565b5b5092915050565b600081905092915050565b50565b600061335960008361333e565b915061336482613349565b600082019050919050565b600061337a8261334c565b9150819050919050565b600061338f82612785565b915061339a83612785565b92508282019050808211156133b2576133b16132cd565b5b92915050565b60006133c382612785565b91507fffffffffffffffffffffffffffffffffffffffffffffffffffffffffffffffff82036133f5576133f46132cd565b5b600182019050919050565b7f4e487b7100000000000000000000000000000000000000000000000000000000600052601260045260246000fd5b600061343a82612785565b915061344583612785565b92508261345557613454613400565b5b82820490509291505056fea2646970667358221220f6fd6ae09c96936323018f072005a802a2e5254b666fd00b3ede99e7e8d1a62e64736f6c63430008110033",
  "linkReferences": {},
  "deployedLinkReferences": {}
}